:020000040800F2
:10000000000C0020890200089102000893020008F9
:1000100000000000000000000000000000000000E0
:100020000000000000000000000000009502000831
:10003000000000000000000097020008853700085B
:100040009B020008000000009B0200089B020008C1
:100050009B0200089B0200089B0200089B0200080C
:10006000000000009B0200089B0200089B020008A1
:100070009B0200089B0200089B0200080000000091
:100080009B020008000000000000000099370008F3
:10009000000000009B0200089B0200089B02000871
:1000A000000000009B020008000000009B02000806
:1000B00000F002F800F0BDF80CA030C80838241891
:1000C0002D18671EA246AB4654465D46AC4201D190
:1000D00000F0AFF87E460F3EB6460FCC0126334205
:1000E00000D0FB1A3343A246AB46184758780000AD
:1000F00078780000103A02D378C878C1FAD852074D
:1001000001D330C830C101D504680C6070470000CD
:100110000023002400250026103A01D378C1FBD823
:10012000520700D330C100D50B60704710B56E295F
:1001300002D101F043F910BD702902D101F07DFA1E
:1001400010BD662902D107F0B3F810BD652902D1B0
:1001500007F0AEF810BD672902D107F0A9F810BD6D
:10016000612902D107F0ACF810BD03681B0A01D366
:1001700080231943692902D101F0EAF810BD6429EE
:1001800002D101F0E5F810BD752902D101F0E0F8C7
:1001900010BD6F2902D101F0FBF910BD782902D101
:1001A00001F038FA10BDE92902D101F097F910BD2C
:1001B000E42902D101F092F910BDF52902D101F034
:1001C0008DF910BDEF2902D101F0EEF910BDF8292B
:1001D00002D101F02DFA10BD0368DB0901D38023A1
:1001E0001943632902D101F0DAFF10BD732902D14E
:1001F00001F0DDFF10BDE32902D101F0E7FF10BDE2
:10020000F32902D101F0EAFF10BD002010BD1FB597
:1002100001F028F804000020002106F08DFF401CAA
:1002200060600020002106F09DFFE0601FBD10B55A
:1002300010BD02F02DF91146FFF7E9FF04F00EFFA3
:1002400002F056FF03B4FFF7F2FF03BC02F0D0FF49
:1002500070B505460C46164602E00FCC0FC5103EA1
:10026000102EFAD2082E02D303CC03C5083E042E6A
:1002700007D301CC01C5361F03E021782970641C27
:100280006D1C761EF9D270BD0748804707480047AD
:10029000FEE7FEE7FEE7FEE7FEE7FEE70448054966
:1002A000034A054B7047000095370008B10000086D
:1002B00000080020000C00200008002010B500F00D
:1002C000D1FF001D10BD00BF716E00001CB50C46B3
:1002D000064B7B4469460090204601F088F80446AE
:1002E0000020694601F096F820461CBD3F11000031
:1002F00070B5064600F0BAFF0468054630460A228B
:10030000002101F0CDFA2C6070BD000010B5024A4A
:1003100001F0FEFA10BD000000000020034610B5F9
:100320000B439B070FD1042A0DD308C810C9121F15
:10033000A342F8D018BA21BA884201D9012010BDD1
:100340000020C04310BD002A03D0D30703D0521CA5
:1003500007E0002010BD03780C78401C491C1B1BD3
:1003600007D103780C78401C491C1B1B01D1921E3D
:10037000F1D1184610BD000030B5441C03E00178EF
:10038000401C00290DD08107F9D10B4BDD0104C8B9
:10039000D11A91432940FAD0001B0A0603D0C01E8F
:1003A00030BD001B30BD0A0401D0801E30BD0902E3
:1003B000FCD0401E30BD0000010101010346F0B534
:1003C0000B439B072DD1244DEF01042A29D308C8E4
:1003D00010C95E1B9E43121F3E4017D0D8B2E1B237
:1003E000401A3106014310D198B2A1B2401A31042B
:1003F00001430AD118022102000A090A401A3102F7
:10040000014302D1180E210E401AF0BDA342DCD0E8
:1004100018BA21BA884201D90120F0BD0020C0439A
:10042000F0BD002A01D10020F0BD03780C78401CFB
:10043000491C002B0DD0A3420BD1521E09D00378CA
:100440000C78401C491C002B03D0A34201D1521E42
:10045000EBD1181BF0BD000001010101F8B5042A21
:100460002CD3830712D00B78491C0370401C521EFA
:1004700083070BD00B78491C0370401C521E830766
:1004800004D00B78491C0370401C521E8B079B0F35
:1004900005D0C91ADF002023DE1B08C90AE0FFF7D8
:1004A000D7FEF8BD1D4608C9FD401C46B4402C438C
:1004B00010C0121F042AF5D2F308C91A521EF0D434
:1004C0000B78491C0370401C521EEAD40B78491C5F
:1004D0000370401C012AE4D409780170F8BD0000C3
:1004E000002203098B4273D3030A8B4258D3030BB8
:1004F0008B423CD3030C8B4221D312E003460B43C7
:100500007FD4002243088B4274D303098B425FD30C
:10051000030A8B4244D3030B8B4228D3030C8B4238
:100520000DD30902FF2212BA030C8B4202D312121E
:10053000090265D0030B8B4219D300E0090AC30BF3
:100540008B4201D3CB03C01A5241830B8B4201D3A0
:100550008B03C01A5241430B8B4201D34B03C01A89
:100560005241030B8B4201D30B03C01A5241C30A01
:100570008B4201D3CB02C01A5241830A8B4201D372
:100580008B02C01A5241430A8B4201D34B02C01A5C
:100590005241030A8B4201D30B02C01A5241CDD201
:1005A000C3098B4201D3CB01C01A524183098B424C
:1005B00001D38B01C01A524143098B4201D34B0135
:1005C000C01A524103098B4201D30B01C01A524198
:1005D000C3088B4201D3CB00C01A524183088B421F
:1005E00001D38B00C01A524143088B4201D34B0008
:1005F000C01A5241411A00D201465241104670477A
:100600005DE0CA0F00D04942031000D3404253407E
:100610009C46002203098B422DD3030A8B4212D33E
:100620008901FC2212BA030A8B420CD38901921170
:100630008B4208D3890192118B4204D389013AD0AD
:10064000921100E08909C3098B4201D3CB01C01A82
:10065000524183098B4201D38B01C01A5241430995
:100660008B4201D34B01C01A524103098B4201D383
:100670000B01C01A5241C3088B4201D3CB00C01AF0
:10068000524183088B4201D38B00C01A5241D9D208
:1006900043088B4201D34B00C01A5241411A00D289
:1006A00001465241104663465B1001D34042002B85
:1006B00000D54942704763465B1000D3404201B504
:1006C0000449002802DC491C084000E00846C046F6
:1006D000C04602BDFFFFFF7F7047704770470000B4
:1006E0000246C80FC00781434B0030B54B405B004A
:1006F0009B0D20D01923DB06C91801231B05994245
:1007000020DB0324A40704251346AB400BD3002BA6
:1007100004D1EB0613409B00E34204D40124640798
:10072000002312195941FF231B0599420BD2C9001E
:100730000143500F09E0CB0204D5014308030243F3
:1007400005D0054830BDFF21C905084330BD084626
:1007500007210905884330BD0000C07FF0B50C4675
:10076000871A9C410D46861A9D4103D2C01BA141A8
:10077000D21963410D0D1F0DC94EEC1BAE435CD069
:100780007F057F0D0026002F51D02D05AC46A943D3
:10079000DD020123ED0A1B051D4320231B1B24D46E
:1007A0001746E740381871412F46E740CC199D4065
:1007B0002818314661410C0D27D161449A4013D568
:1007C0000023401C594152000ED140084000012234
:1007D0004B005205D34207D305204007C14201D543
:1007E000B04900E0B0493046F0BD6B00002A00D0AF
:1007F00001229A181F23203C1B1B01D5002302E075
:10080000E540281871410C0DD7D0012424050919A1
:10081000C407CD0740084908E40F28436144002C71
:10082000D5D00024401C61419A40D0D1CDE76A0563
:10083000520DD9D1C90FC907D5E79C4D4E000028EC
:1008400001D0012400E0002434195F00002A01D007
:10085000012600E00026BE19954FAC420CD8AE42EE
:100860000AD8B44206D001256D05EC42BCD0104632
:100870001946F0BD9942FCD000203946F0BDF0B5D4
:100880001FB40C460F46811A9F412546861A9D418A
:1008900006D20125ED076F40401ABC4152187B413A
:1008A000210D1E0D8D1BAC467D4D8D437ED07505F3
:1008B0006D0D7CD00D05AE46AC431B031B0B794D73
:1008C00052429D41202366469B1B14D31746F74096
:1008D000381800260090744160462F460741E419FD
:1008E00000989D402818664116D4714671189A40A8
:1008F00025D5012320E093182A466A415200002B97
:1009000000D0521C1E23203E9B1B002B61DD354175
:10091000EE1728186641E8D5001876415B1C9A400E
:1009200000D3401C4B05F3181524E34010D3002BD3
:1009300052D071467118D30FC01802D3491C05B0AC
:10094000F0BD0123DB079A42F9D140084000F6E7E9
:1009500001225205B21801D1002853D00123CC0A3C
:10096000DB029943891E002A08D1020C03D0020C35
:100970000004103902E00246002020390023550B04
:1009800005D112020823550B01D152010D23550C3C
:1009900001D112011B1DD50C01D192009B1C150D1C
:1009A00001D152005B1C2025EE1A01E02CE022E070
:1009B0000546F54015439840CA1AE1076918130522
:1009C000C918002ABBDA032040070818C10FC9075D
:1009D0000FE071466118B2E7F10740080843711053
:1009E00071444A000CD001235B059A42A7D2C90F7B
:1009F000C9070020A3E74905490D26D1002001E0E1
:100A00000028F4D100219AE7284D6600002801D083
:100A1000012100E0002171185F00002A01D00126A9
:100A200000E00026BE19224FA94210D8AE420ED8CF
:100A3000B14208D001256D05E94206D01946A80249
:100A4000414010467BE79C4201D0214677E70020D9
:100A5000394674E710B50C465C4005D50124E4071F
:100A60006340FFF70CFF10BDFFF778FE10BD30B4F8
:100A70000C465C4004D50124E407634030BC6DE6BD
:100A800030BCFCE670B50124E40761400D465D40D2
:100A900002D4FFF763FE70BD6340FFF7F0FE70BD48
:100AA000FF0700000000F0FF0000F07F0000E0FF03
:100AB0000000F87FF0B5F94D0C091E092C402E40BE
:100AC0002F468BB0A7437DD0B543FCD0002E7AD003
:100AD000002CFCD00D465D40ED0F2543AC1BFF25DF
:100AE000AD0464190894C502440DC9022143500D98
:100AF000DC0204430120C00701430443D2020191F8
:100B0000200C110C00958C46010423468B430A915E
:100B100061460904E24D8A430991010A7D4449195D
:100B20008039097805464D4301266D18F605751B79
:100B30006943C90C640B891C4C436418B5012C1B18
:100B4000250C2E04B4434C434D43210C69188909EC
:100B50000591009DE90701D00121C90704912C46A8
:100B600001996708CD072F434C08059DE10B4D43C4
:100B70002D0C29466646754302950D4645432E4683
:100B8000029D7D1BB44100950D465D4301942C0CE4
:100B90002F040D465543AE462D0C3D43029503945C
:100BA0007546049C2D04641B049406D2029C039D8C
:100BB000641C002675410395029401AC70CC009F23
:100BC0007D1B01E03EE162E1B4410904009507911B
:100BD00001940599A4086143090C0C464443650B34
:100BE000E7040C4666467443A646640B3C430395F3
:100BF00002947446049DE4042C1B049406D2029CC7
:100C0000039D641C002675410395029401AC70CCD1
:100C1000009F7D1BB44101940C465C430095650F19
:100C2000E7000C465443A646640F3C4303950294E8
:100C30007446049DE4002C1B049406D2029C039D80
:100C4000641C002675410395029401AC70CC009F92
:100C50007D1BB441AE09AF06049DC900AD092F4309
:100C6000049DA406AD060495079D344369180791B9
:100C7000059DE10B4D432D0C2946664675430295B3
:100C80000D4645432E46029D7D1BB44100950D4601
:100C90005D4301942C0C2F040D465543AE462D0C9C
:100CA0003D43029503947546049C2D04641B0494F3
:100CB00006D2029C039D641C002675410395029494
:100CC00001AC70CC009F7D1BB44101948C0506944F
:100CD000079C890A611800950791019C0599A40851
:100CE0006143090C0D464543680BEF040D4664460D
:100CF00065436C0B3C43049FED047D1BAC4602D264
:100D00000025641C6841009E019D371B85410846F3
:100D1000584301950C46460FC5005443600F2843C5
:100D20006546E4002C1B02D20025401C6E41019D4B
:100D30003F1AB5412846BD09800628438446A009CC
:100D4000BF064E020699A40676180743079D0020A9
:100D500068410A99079019430020099B009060465A
:100D6000FF1913434041E20F64003A43A44604468E
:100D7000D71A8C41A04203D90120009020463A4660
:100D8000C70F941840416246D20F22436446640064
:100D90000494009CBE466400D71AA44604460297F9
:100DA0008C417746002F01D1A04204D96046401CF7
:100DB0008446029A2046C40FA64694184041049ADD
:100DC0000546D20F224364466400D31A8D41714612
:100DD000002901D1A84202D928461A46641C1043B2
:100DE0000122002800D0164361020020079B8919C8
:100DF00004465C410223002C02DB4918134664417F
:100E0000089DCE0A2D145D194B056705E10A2C05D6
:100E10000D1908993E43C9076940002B08D093403B
:100E200006D30022761C5141002B01D176087600B2
:100E30001C4A002D43DB154241D0AA433FD0304627
:100E40000BB0F0BD06180D464D41174C7642AC4133
:100E50001AD395181C465C41134A6D42A24113D324
:100E6000012252054C00D4420AD15C00D4420BD07E
:100E70004B4002D592021143E2E749004908DFE7FF
:100E80005940C90FC90718E000200849D8E70548AC
:100E900001420DD10342F7D0F2E700000000FF0746
:100EA000E06700000000F07F0000E0FF0000F87F36
:100EB000114859400143C01241400020C0E70123BE
:100EC000089A9B069A4205DC032252078918C90F2B
:100ED000C907B5E7052252078918074A1143D212FC
:100EE0005140ADE770B515461C4602460B462846F4
:100EF0002146FFF7DFFD70BDFFFFFF7F30B50346E2
:100F0000CA02400D1043164D164C0A1502D020435C
:100F1000002A06DBAA1A002A12DDD040FF2A0BDCC9
:100F200030BD5205520D01D140004008AA1A07D425
:100F3000D0404042FF2A01DD002030BD0028FCDD0A
:100F40004A00002B01D0012000E0002010180122EF
:100F50005205D042F0D8C817C043604030BD0000F1
:100F60001E04000000000080F0B58B4C0F092546E0
:100F700089B0BD437BD01D092646AE43FAD00E464C
:100F80005E402740F60F3E43254071D024012142A8
:100F9000FBD0FF24AD19A4042D1B039501252D05BD
:100FA000DB02DB0AC9022B43C90A29431E010901DE
:100FB000040F130F050121431701880B820391438E
:100FC0002D098C46A90B1E438A039543B30B9A0344
:100FD00096433F09BA0B9403A74302962E467E43DD
:100FE0000497B6464E19D7190C46019654430597F7
:100FF0007E43371B7646BF1B3601B646BE0B3619FD
:1010000000967646BC043719009C01D3641C0094FA
:101010006400002F01D001263443029E049F7543D3
:1010200066467E430496760034196E0034190094A7
:10103000029C019E1C196643751BAE4606946546CC
:101040004519059C05956C43594375460891691AE5
:101050000191049E01465143A41B0491611A009C16
:101060000791E10605D061090122114302E072E017
:101070006EE06109089D00272C0A2D066918049D61
:101080007C412A0A2D066918019D6241AC0DAD0212
:101090006D185441079A910D920255196141029AB7
:1010A000644658435443069B059A5A43121A131B2D
:1010B0009A0E9B015B187A41010B0005C318514140
:1010C000220A200644195A419A4200D2491C0120A2
:1010D0004002814203D315230226F64302E0142383
:1010E0000326F6432020C51AA9401746AF40DA4030
:1010F0000A4320460399D84009147318190551185A
:10110000039A3843D2075140AC4009D001229440A1
:1011100006D30022401C5141002C01D14008400060
:101120001E4A934212D3012203989206904207DB93
:101130000520400709181A480143C012414004E045
:10114000032040070818C10FC907002009B0F0BDEF
:101150000020F107FAE705180C464C4111486D4292
:10116000A04115D394181A465A410E486442904142
:101170000ED301204A004005824209D35A00824220
:1011800006D35940C90F084AC90700201143DDE7BB
:1011900000200649DAE700000000FF07FE07000014
:1011A000FFFFFF7F0000E0FF0000F07F0000F87FFE
:1011B0000121C9050123411842001B06D3185B0E0B
:1011C0000AD0C1100722D206891840075242D142E4
:1011D00001D5520089187047090208D50146002A36
:1011E00003D0C10FC9070020704710467047420264
:1011F00002D0002002497047072109050143F4E7A6
:101200000000F87F1F22030C02D10F2200041CD023
:10121000030E01D10002083A030F01D10001121F91
:10122000830F01D18000921E002801DB4000521E76
:10123000D2055118021251181922904004D3491CAA
:10124000002801D14908490008467047C10FC90765
:1012500000D04042012292071143D3E701218907C0
:10126000D0E7000000487047500000200048704759
:101270003000002010B5FFF7F9FF006810BD10B571
:101280000446FFF7F3FF046010BD70B5044685699E
:101290000068C10601D5302600E02026C00707D02F
:1012A00070BD62683046A1689047206A401C206289
:1012B0006D1EF6D570BD70B5044685690078C0070F
:1012C00007D170BD6268A16820209047206A401C49
:1012D00020626D1EF6D570BD09684A0501D540B281
:1012E0007047C905FCD500B2704709684A0501D5A9
:1012F000C0B27047C905FCD580B2704770B50C46C6
:101300000546012A05D02878800600D5EA69002321
:1013100002E0012305E05B1C934202D2E05C00285E
:10132000F9D1A869E618C01AA861286AC01828620D
:101330002846FFF7AAFF04E06A682078A968641CC1
:101340009047B442F8D32846FFF7B5FF70BD0000C0
:10135000F7B5002575291068009914A611D0FFF77C
:10136000BBFF002802DA404211A608E00099096894
:101370008A0701D50FA602E0490704D50EA601256C
:1013800001E0FFF7B2FF009F0024243704E001F0E2
:1013900039F830313955641C0028F8D12B463246D3
:1013A0002146009800F022FBFEBD00000000000076
:1013B0002D0000002B0000002000000011680268D2
:1013C000006A530501D5087009E0D30501D50880EE
:1013D00005E0130602D5C21705C100E00860012030
:1013E0007047000001694A1C02610878704700B527
:1013F0008FB0029100210591054901937944039131
:1014000011460490684600F025F90FB000BD0000B9
:10141000E5FFFFFF0A681070521C0A607047000069
:10142000F7B50446154686B02B487844002703C814
:101430003E460090019111E007986A467100415ABA
:1014400002A800F044FF411C07D02178890603D58B
:10145000E269391891420ED83F18761C2078800630
:1014600002D5E069B84206DDAE42E5DB07987100BF
:10147000405A0028E0D1A069C01BA0612046FFF7B8
:1014800004FF154878445A3803C8009000200191A1
:1014900016E041006A460798415A02A800F017FF7B
:1014A0000590401C0AD0002505E0626802A8A168EA
:1014B000405D90476D1C05988542F6D30498401C0A
:1014C000B0420490E5DB206AC01920622046FFF795
:1014D000F2FE09B0F0BD0000525F0000F7B5D21D6A
:1014E0000025D20815A6D200F52905CA11D0002A78
:1014F00005DA00214042914111A60A4608E0009910
:1015000009688B0701D50FA602E0490701D50EA691
:1015100001251146009F0024243704E000F020FA42
:1015200030323A55641C02460A43F7D12B46324604
:101530002146009800F05AFAFEBD000000000000AD
:101540002D0000002B0000002000000070B50446B4
:101550000021243408E05507D2086D0F303565545A
:101560005D072A43DB08491C15461D43F3D1046877
:10157000002310A2250708D520252C400C4304D0B9
:10158000C46901230CA2641EC46100F02FFA70BD6F
:1015900010B5044621461068FFF7A7FE0023024657
:1015A0002046FFF7D3FF10BDD21DD108C9000CC9DA
:1015B000CCE700000000000030000000F8B50F4646
:1015C0000188090502D5224C7C4402E0204C7C4471
:1015D0000E3405460021243508E016071209360F9F
:1015E000A65D6E541E0732431B09491C16461E4356
:1015F000F3D1224604780023240705D5702F06D0A6
:10160000002901D00223113200F0F0F9F8BD0123C6
:101610001032F9E770B504460D4621461068FFF711
:1016200064FE0023024629462046FFF7C7FF70BD2F
:10163000D21DD308DB000CCBC0E730B403682024F4
:101640001268234303600823C36130BC0023B5E75D
:10165000BC5D0000F3B50446002081B02062204646
:10166000E1688847002872D0252802D06268A16806
:10167000ABE0594F00267F442046E1688847202888
:10168000054608DB312D06D278192038007800286D
:1016900001D00643F0E7B00701D5042086430020BF
:1016A000E0610746A0612A2D0AD0284605F0B9FC62
:1016B000002827D0B8000019303D0090856119E05E
:1016C0000298BA00121902C8916102902046E1689E
:1016D0008847012F054617D1E06900281FDA20202E
:1016E00086431CE000980A2180694843009940190C
:1016F000303888612046E1688847054605F091FC4E
:101700000028EFD1012F0AD02E2D08D12046E16804
:1017100088470546202006437F1C022FC3DBA069B3
:10172000002803DA4042A06101200643F00701D0FF
:10173000102086436C2D0BD0682D09D04C2D3CD049
:101740006A2D38D0742D38D07A2D36D016E040E08E
:10175000E1682F4620468847B842054609D16C2FDC
:1017600029D001208002E1680643204688470546CB
:1017700004E06C2F1DD0FF2001300643002D28D03F
:1017800028464138192803D80120C00206432035D5
:10179000204626602946029A1646FEF7C7FC002816
:1017A00010D001280BD0F61DF008C00008300290C0
:1017B00055E74020E1E78020D5E70020D3E7361D3C
:1017C00002964CE762682846A1689047206A401C50
:1017D00044E7206AFEBD0000365D00000FB40A46F3
:1017E000002300B589B00DA900910C99CB60254B61
:1017F0007B440693244B7B44002A079301D00423A7
:1018000000E00023214A01930292214A7A446B4668
:1018100008920246002005F05BFD09B008BC04B048
:101820001847F0B507461E4615460C463B4685B0A0
:1018300000206A46C04301900020049004A8009153
:1018400002913146FFF7CAFF049902466018002D45
:1018500005D0002901D0034600E023462B60002973
:101860000ED0002A02DD0099814209D03B466A462B
:101870003146001B019004A800940294FFF7AEFFCC
:1018800005B0F0BDF10900000B0A0000FFFFFF7F6B
:10189000CB01000010B500230360FFF7C2FF10BDAD
:1018A000F7B50F460026009C2578641C002D05D056
:1018B000FEF704FD0068405DC007F5D12B2D02D076
:1018C0002D2D18D0641E3946029A204600F0ACFC3B
:1018D000002F04D03968A14201D100993960710507
:1018E000022400290BDA4042002803DDFFF7BEFC8A
:1018F0000460A007FEBD012080020643E3E7002844
:10190000F8DAFFF7B3FC04600048FEBDFFFFFF7F7D
:10191000F8B515460E46040003D12C68002C00D102
:101920000CA4204600F005FD0419207800280ED0F4
:1019300027463146384600F0EBFC04192078002891
:1019400002D000202070641C38462C60F8BD0027AF
:10195000FAE7000000000000004870473000002057
:101960000B4670B5024689078008084319469D0852
:10197000141AA94125090807054308092C194841EB
:10198000250A01060D43010A2C194141200C0D04C2
:1019900028430D0C00194D41002140194D41C0084C
:1019A00069070843E908840F8D0025438400241843
:1019B0004D4124196D41121BAB4107E00925ED4350
:1019C0002C11521963410024401C61411C460A2518
:1019D0000026551BB441F1D270BD10B50446FEF788
:1019E0006DFC0068005DC007C00F10BDFFB5044668
:1019F0000D4681B0243000902168880604D510225D
:101A0000E0699143216000E00120A84201DD471B0D
:101A100000E000270498A1697A191018081AA0613B
:101A20002078C00602D42046FFF72FFC002608E0ED
:101A300003986268A168805D9047206A401C761C0C
:101A4000206204988642F3DB2078C0060AD520463F
:101A5000FFF71BFC06E06268A16830209047206A0F
:101A6000401C206238467F1E0028F4DC07E0009806
:101A70006268A168405D9047206A401C2062284649
:101A80006D1E0028F3DC2046FFF715FC20780006C9
:101A900002D5022005B0F0BD0120FBE7FFB50C46E2
:101AA0001E468FB003CA089009914F007D0D00D1EA
:101AB0006D1E002108460020C0460321099A8905B1
:101AC0000840002A03DA8200801840080840800D90
:101AD00001280A9002DD0020C0430A9008980743BD
:101AE0000DD0F048F04928184843071418980028EA
:101AF0001DD07542291E1DDD0A9842421BE0189830
:101B0000012802D00020302104E00020F24305E04B
:101B10002154401CB042FBDB30460022189B0021C0
:101B200021540F998B600A60486013B0F0BDBD1B53
:101B30006D1CDFE70A9A002900DA69420BA800F061
:101B4000ABFF0BAB07CB03AB07C30899099801F0B8
:101B50000FF86B4607C30146D4480918002D0091C1
:101B60000BDDD24903980A9A49424018002303A981
:101B70000390684601F06CFA08E003990A9A002382
:101B8000081803A90390684601F00CFA6B4607C3D6
:101B90000004000C03D00020C043410800E01046C0
:101BA000189A002A03D00022009215461EE0751EE6
:101BB00005D4FFF7D5FE303262556D1EF9D50122EE
:101BC0000843079602D000227F1C04E020783028CA
:101BD00001D100227F1E002A069787D01EE0112D1A
:101BE00007DAFFF7BDFE303262556D1C02460A432C
:101BF000F5D1084303D00098002819D00EE0002149
:101C0000681E05E0235C625C63542254401E491C3C
:101C10008142F7DBA81B401E07950690079A18998A
:101C20000020A0540F98079B069A81600CC07CE7A7
:101C300011260020189059E7D21DF0B50D46044634
:101C4000D10893B0C90003C90C900D9105F03EF97D
:101C500002460D98C00F01D02D2007E020688107B3
:101C600001D52B2002E04007C00F4001032A0F904E
:101C700001D0072A05DB03462946204600F028FC50
:101C80000EE12078800601D5E76900E006272846A6
:101C9000652D04D0662814D0672D69D12DE0002071
:101CA000112F009001DB112300E07B1C0CAA03A97B
:101CB00010A8FFF7F3FE1199002610987D1C0E91D5
:101CC00042E001203B460CAAC0070B900120009087
:101CD00003A910A8FFF7E2FE119D129810990026A3
:101CE00000280E9501D1781C0D18781B02D44642AD
:101CF0007D1C761EE81B00903AE0012F00DA0127D8
:101D00000020112F009001DD112300E03B460CAABA
:101D100003A910A8FFF7C2FE11993D4610980026AE
:101D20000E91217809070BD40E99A94200DA0D46CD
:101D300003A9012D04DD4A19203AD27F302A06D0AA
:101D4000B84201DA011D04DA012100910FE06D1E95
:101D5000EFE7002802DC86192D1A03E0411CA94296
:101D600000DD0D46801B401C00900120C0070B9039
:101D70002078000705D40098A84202DB0020C04369
:101D8000009069460020C8720B98012102AF03370A
:101D9000C907884225D0022010902B2011900B9863
:101DA00000280BDA40420B902D20119006E00B9892
:101DB00000F028FB30317F1E0B9039701099481EBF
:101DC00000291090F3DC0B980028F0D111987F1EA9
:101DD00038702088000501D5452000E065207F1E71
:101DE000387001A8C01BC01D0B900F98002800D0B0
:101DF000012041190098C01709180B980818A1690B
:101E0000081A401EA0612078C00602D42046FFF7C1
:101E10003CFA0F98002805D06268A1689047206AB4
:101E2000401C20622078C00625D52046FFF72DFAF9
:101E300021E0002E07DB0E98B04204DD03A86268A3
:101E4000805DA16802E06268A16830209047206A46
:101E5000761C401C20620098401E002800900AD189
:101E6000FFF700FAC06862680168405CA1689047AB
:101E7000206A401C206228466D1E0028D9DC07E03D
:101E800062683878A1687F1C9047206A401C2062F5
:101E90000B99481E00290B90F2DC2046FFF70BFA45
:101EA000032042E601FCFFFF104D0000E1DFFFFFD1
:101EB000D21DF0B504460D46D0088DB0C00046686E
:101EC00007683146384605F001F80246F00F01D0A8
:101ED0002D2307E02068810701D52B2302E040076E
:101EE000C00F43016846002B037001D0012000E0C1
:101EF0000020032A0A9001D0072A04DB2946204645
:101F000000F0E6FA2DE12078800601D40D2500E0EE
:101F1000E5697000400D0D2D01904BDA300D002168
:101F20000B9008460020C046032189050840002E7A
:101F300005DA82008018C20F101840100840801582
:101F4000012801DD0020C043A9000023182906D381
:101F50009C460A460123183A1B07D34003E001229E
:101F60001205CA4094460C31202902D33A46203942
:101F700000E032468A40002802DD002A06D119E03E
:101F8000002817D10121C9078A4213D31946634695
:101F90007F185E41002806D10120C007824202D18D
:101FA000084687439E430B98310D814202D0019829
:101FB000401C01902088000502D57149794402E057
:101FC0006F49794419396B460A9830221A540A9895
:101FD0000A7C401C1A54401C0A900198002801DC1D
:101FE000302000E031201872019A0120002A02D02E
:101FF000644BD21804E072003A4302D0614A521C8A
:102000000192002D02DC2278120703D56A462E20A9
:10201000507202200022864694460CE032033601BC
:10202000120F6D1E8B5C02AA13546246521C401C98
:102030009446052A01DA002DF0DC002202AE08E009
:102040003B0F3F01CB5C521C6D1E3354401C082AD1
:1020500001DA002DF4DC23689A0601D511E0401E58
:10206000704504DD3218203AD27F302AF7D000289C
:1020700007DD3218203AD27F2E2A02D11A0700D467
:10208000401E002D03DD3E223254401C6D1E497C53
:1020900031540199401C002906DA2D21471C315486
:1020A00001984042019003E02B21471C31540198D4
:1020B0007D21C900884206DBFEF720FA3030F0555A
:1020C0007F1C019101E0642808DB01986421FEF780
:1020D00015FA3030F0557F1C019101E00A2806DB2B
:1020E00001980A21FEF70AFA3030F0557F1C01985A
:1020F0000A21FEF703FA3031F1550A98A1697F1CD5
:102100007A191018081AA0612078C00602D4204657
:10211000FFF7BBF8216A6E460A980818206204E0AF
:1021200062683078A168761C90470A98401E0A9031
:10213000401CF5D12078C00602D52046FFF7A5F84F
:1021400002AE09E03078761C3E280DD06268A168A6
:102150009047206A401C20627F1EF3D22046FFF782
:10216000AAF80DB00320F0BD206A4019206203E0F8
:102170006268A168302090476D1EEDD3F8E700003B
:102180001454000001FCFFFF10B54369002B02D07E
:10219000C046C04601E0FFF7B1F8012010BD12783B
:1021A000014624310A7000224A700122ECE71168CE
:1021B0000022D243E8E710B54369002B02D0C046A5
:1021C000C04601E0FFF72CF9012010BD128801463E
:1021D000243182840022C2840122ECE711680022AB
:1021E000D243E8E74268002A08D001680B78491C0E
:1021F000002B03D0521E06C0184670470121C16053
:10220000881E70474268002A0BD0C3680168002B03
:1022100007D183688B4204D0491E521C06C000209F
:1022200070470020C0437047F7B5154682B00027BD
:10223000029C2078641C0197302802D0002D15D014
:1022400015E020780127641C782804D0582802D093
:10225000002D09D00BE0002D01D0102D07D12078E2
:1022600000271025641C02E0082500E00A2500264E
:10227000009610E000990127694308182946714328
:10228000020C80B200908E183804864201D30120DF
:1022900001902078641C294600F05EF90028E9DAF4
:1022A0000398002805D0002F01D0641E00E0029C96
:1022B00004600198002806D0FEF7D8FF02210160D3
:1022C000C81E05B0F0BD009930040843F9E7F8B521
:1022D00016460C460546FDF7F1FF0368FF20023065
:1022E000C05C012807D0FF2C0FD8185D00280CD047
:1022F00001202C70F8BDFF333246214608331868A0
:10230000C71828460023B847F8BD0020C043F8BDD1
:1023100030B503461D78002D03D00A4603E0AC42D9
:1023200001D1181A30BD1478521C002CF7D15B1C57
:10233000F0E730B503461D78002D08D00A46147822
:10234000521C002C03D0AC42F9D15B1CF3E7181AE5
:1023500030BD000082078B079A423FD170B5920FC3
:102360000AD0032402780B78401C491C002A33D081
:102370009A4231D12042F5D1214EF40104C808C956
:10238000951B9543254018D19A420FD104C808C91E
:10239000951B9543254010D19A4207D104C808C91E
:1023A000951B9543254008D19A42E7D012BA1BBA33
:1023B00001209A4200D2404270BD12BA1BBA2DBA17
:1023C00018241000E0401900E140401A05D12E0009
:1023D000E64002D1083CF4D1D01A70BD02780B78E7
:1023E000401C491C002A09D09A4207D102780B7878
:1023F000401C491C002A01D09A42EFD0D01A7047E5
:102400000101010101468008081A02091018020A98
:102410001018020C1018C008820012185200891AF5
:1024200001E0401C0A390A29FBD2704710B5FF238E
:102430001B0644009C421DD84C009C421AD80346FF
:10244000124A0B4307D4401A02D3EFF3008010BDA9
:10245000EFF3008010BD081A03D3EFF30080904320
:1024600005E0EFF3008001219043C907084380F3A2
:10247000008810BD0D231B041A4204D01146002011
:1024800000F03EFE10BD00F053FE10BD00000090B5
:102490007546FFF761FAAE46050069465346C00827
:1024A000C000854618B020B5FDF7F8FE60BCB64602
:1024B00000260027C0C5C0C5C0C5C0C5C0C5C0C5B1
:1024C000C0C5C0C5403D490849008D467047000061
:1024D000F8B51F46044601230068DB0203260146C7
:1024E0001840072A05DB002801D017A506E017A52C
:1024F00004E0002801D016A500E016A510208143B5
:102500002160A069C01E002FA06101D0401EA06103
:102510002046FEF7BAFE002F09D038466268A1684F
:102520009047206A401C2062C01C206206E0206A9E
:10253000FAE762682878A1686D1C9047761EF8D289
:102540002046FEF7B8FEF8BD4E414E006E616E00AB
:10255000494E4600696E66003A2800D23038202382
:1025600002469A43412A01D310463738884201D3A4
:102570000020C04370470000FFB58BB00878FF28EB
:1025800006D0491C2D2805D000230020009009E02A
:1025900000200EE00123F8E7009A0A246243801825
:1025A000491C00900878FF28F6D1002B02D0009833
:1025B00040420090002503952C460D9800782D2868
:1025C00001D02B2815D10D99491C2D280D9102D031
:1025D000002003900DE00120FBE7401C214600276E
:1025E0000A223B460D90284600F0BAFD35183C46BD
:1025F0004C410D980678FF2EEFD1002108460020AF
:10260000C0460399002902D081004018400800020A
:10261000860F012E01DD0026F6430E99009847181B
:10262000284620430BD0FF20F530C7421ADA039822
:10263000C1070B98002E41600ADD012009E00398D4
:10264000C1070B9841600B99002008600FB0F0BDE6
:1026500000200B990860FEF709FE02210160182195
:1026600008461AE0FF20F530874219DD002E02DA15
:10267000FC48784401E0FC48784406C80B9806C042
:102680000B9803994068C90708430B994860FEF707
:10269000EDFD02210160142108460020C046D5E767
:1026A000002108460020C04639000A9001D5724238
:1026B00000E03246002900DA794207A800F0ECF980
:1026C00007AB07CB04AB07C3E848009000200146E6
:1026D000214304D12C460546E44920390091210CC0
:1026E0000904014306D1290C24040C4300992D044C
:1026F00010390091210E0906014306D1290E24024A
:102700000C4300992D0208390091210F090701435C
:1027100006D1290F24010C4300992D01091F0091B6
:10272000A10F8907014306D1A90FA4000C4300990A
:10273000AD00891E0091E10FC907084304D100983C
:102740006D196441401E0090002F0295019406DD32
:1027500032466846012304A900F032FC05E001235B
:102760003246684604A900F080FC044603980D46F2
:10277000002802D00120C007444000210846002064
:10278000C0460A99BA4E48400007800F07D1600042
:102790004008284303D06000400DB04214D1FEF73A
:1027A00065FD022101606000400DB0420CD1B148CE
:1027B000784406C80B9806C00B98E10FC90740681B
:1027C00008430B99486041E70B9844600B980560FB
:1027D0003CE7FFB51F4695B0002000250C909E6891
:1027E0005C68ED431390FEF73DFDC0680168405CF6
:1027F0001490B96916986D1C88470A90396A884701
:102800000028F6D10A98401C0AD00D20C00184434C
:10281000002E12DD0A982B2809D02D280DD103E0B7
:102820000020C04319B0F0BD012080020443B96903
:1028300016986D1C8847761E0A90600504A901D57C
:102840002D2000E02B206A46491C107410A8002E91
:102850000D910B903BDD0A98692805D0492803D0DB
:102860006E2801D04E281DD13B46039002200296CF
:10287000179A1699C0430095019404F039FDC11CC4
:10288000D0D10FE0B96916986D1C88470A900120D5
:10289000761E40020443179805601398401C002ED2
:1028A000139014DD0A983028ECD0782801D05828ED
:1028B0000DD1139801280AD13B460296179A169912
:1028C000001F0095019404F00BFDC11CAAD11499BE
:1028D0000A98884245D18020044308E00C98179953
:1028E000401E0C90012040020443681C0860B96936
:1028F0006D1C1698761E884730280A90EED030E07E
:102900001499884205D1200603D480200443761E02
:102910001DE00A9804F085FB002825D001210A98C3
:1029200049020C430D9908AA03323038761E9142B1
:1029300008D208700D98401C0D90200607D50C9801
:10294000401E03E0200602D40C98401C0C90A00509
:1029500002D51799681C0860B96916986D1C8847DC
:102960000A90002ECCDC59E0002E57DD0A9865282D
:1029700001D0452852D1A00550D50320B9690002E5
:1029800084436D1C1698761E8847002E0A900CDD35
:102990002B2804D02D2808D1FF2001300443B96929
:1029A00016986D1C8847761E0A90E00501D52D21EA
:1029B00000E02B210B9801700B98401C0B900090AD
:1029C00025E0012012A9400204430B980131761E34
:1029D00088420ED20A980B9930380006000E087013
:1029E00003D100990B9888420AD90B98401C0B9090
:1029F00006E0E00501D5204801E01F4840420C9068
:102A0000B96916986D1C88470A9017980560002EC2
:102A100004DD0A9804F005FB0028D2D1F969169864
:102A200088470D99FF2004AA08700B9908700020B0
:102A30000E900F900C9B10A90EA8FFF79DFDA0050E
:102A400002D40120C043EDE62420044216D0E00762
:102A500020D138680F9A0E99031D3B60006806C0AC
:102A600018E00000F6520000E85200003E4000006E
:102A7000FF070000B0510000F1D8FFFF0EA9684623
:102A800004F04EFAE00705D13868009A011D39605C
:102A9000006802602846C5E6F7B516468AB0334896
:102AA00078446C4603467C33C06F5A689B680DC4FB
:102AB0002E487844763003AC0DC80DC43720C001D1
:102AC000081837211B30FDF719FD05460C46803DDF
:102AD0001B3C02D56442012000E000200027099041
:102AE00010E0E0070CD00C202049784379443246AE
:102AF0004C3941186846012300F054FA6B4607C36D
:102B000064107F1C002CECD1184F7F442E3F16E040
:102B1000E80712D02001C0190EC806910893079249
:102B20000068F04201D1981908903246012306A9A5
:102B300003A800F037FA03AB07C36D10641C002D27
:102B4000E6D10998002806D032466946012303A839
:102B500000F07EFA05E001233246694603A800F042
:102B600021FA0A9B07C30DB0F0BD000044490000E4
:102B7000034640000A4610B5400D0BD00121C9079D
:102B80000F24A40200191C0364082143540D21439F
:102B9000D20207E000210120F2E7D40F49002143CF
:102BA0005200401E0029F8DADB0FDB07184310BD86
:102BB000FFB50D46144685B04868516804F06EF9BB
:102BC00000910190A868A16804F068F9029103904F
:102BD000A868616804F062F9029A121882420292AF
:102BE00001D2012000E00020019A0B18D218002821
:102BF000019202D08A4202D903E08A4201D2012026
:102C000000E000200099081800906868A16804F0AE
:102C100045F9029A12188242029201D2012000E084
:102C20000020019A0B18D2180028019202D08A4283
:102C300002D903E08A4201D2012000E0002000997D
:102C40000818009028682168400049004008490899
:102C50004018FA49471814E001994000C90F084389
:102C60000090019802994000C90F08430190029812
:102C700003994000C90F08430290039840007F1E4B
:102C8000039000980028E7DA0898002801D0EC4E5D
:102C900000E00026B74201DA012000E00020002811
:102CA00004902AD0F71BF806C00E15D0029B2021F5
:102CB000091A039A8B401A430392029A019BC2405D
:102CC0008B401A430292019A009BC2408B400099AC
:102CD0001A430192C14000917B110DD06F46032031
:102CE000C11A03D500218200B95003E08A00810097
:102CF000BA587A50401EF3D53746039802990028F7
:102D000000D00120014308980291002808460CD009
:102D1000002800D001200199019A490508430121AA
:102D2000D20AC902D202019200E001210E9B0122C7
:102D3000D207012B02D0002B03D013E0002807D1CB
:102D400020E0904204D890420CD1019B0B4209D064
:102D5000019B5918019105D10099491C009101D19D
:102D60007F1C009200280DD0102108460020C0468C
:102D70000498002806D00F98002803D008210846A0
:102D80000020C04628682168019B009A4840C10F76
:102D90000598C90739430EC009B0F0BDFFB587B02B
:102DA000099A089808995368926840688968964615
:102DB0000022039317469446089A12685300099A12
:102DC0005B081268520052089A1A9E4BD4180A9A4D
:102DD000002A01D0352200E0402206920022012381
:102DE00015460492DB07059324E0002D05D17546B6
:102DF0000346039E4D1BB34109D375466646039BAC
:102E0000491B049D9841059B7519AC465F4163467B
:102E10003B4308D0059B049EDD0776082E435B08E4
:102E20000496059301E0521E641EC50FED07491874
:102E30004041521C069B9A42D7DB002D04D17546B7
:102E4000039A6B1A824101D203200CE0039A0B46CD
:102E50006B404240134303D0014303D0012002E002
:102E6000022000E0002061460191002100970291BC
:102E70000A99002905D0614640020143704B019137
:102E800002E08007002302909C4201DA012000E06A
:102E9000002007003AD01A1BD006C00E15D0029DA4
:102EA0002021019C091AC5408C402543029C8C407E
:102EB00000D001242543019C0295009DC4408D4013
:102EC00000992C430194C140009154111DD06D46CE
:102ED0000221002202290CD10320001B07E0002858
:102EE00004DB8600AE59002E00D00122401C0328CE
:102EF000F5DB081B02D588002A5004E08000285822
:102F000010438A00A850491EE3D51C460A980028A1
:102F100002980CD0002800D001200199019A49059F
:102F200008430121D20AC902D202019200E0012124
:102F3000109B0122D207012B02D0002B03D013E0FB
:102F4000002807D11FE0904204D890420CD1019B89
:102F50000B4209D0019B5918019105D10099491CD8
:102F6000009101D1641C009200280CD01021084669
:102F70000020C046002F06D01198002803D0082159
:102F800008460020C04608980999019A009B0068ED
:102F900009684840C10F0798C907214382600AC0E9
:102FA0000BB0F0BD00B585B0019300920A46014612
:102FB000002302A8FFF7FCFD02A807C805B000BD6A
:102FC000FFB50A461F4685B007990193012300917A
:102FD000014602A8FFF7ECFD02990398049ECA0F70
:102FE0004900D20700920F22490892028C1A002150
:102FF000002800DB0C46450013486D08844214D3BA
:10300000079A002A04DA441E0026104DF64302E017
:1030100004460D460E46102108460020C046002FEB
:1030200003D0042108460020C0462005E90A0843D1
:10303000009908436905F20A1143ADE602C0FFFF9B
:10304000013C0000FF3F0000FF070000FFFFFF7F83
:1030500000B585B0019300920A460146002302A8FC
:10306000FFF79CFE02A807C8A8E7FFB50A461F465F
:1030700085B00799019301230091014602A8FFF74B
:103080008DFE02990398049ECA0F4900D207009250
:103090000F22490892028C1A0021002800DB0C46FE
:1030A000450011486D08844214D3079A002A04DAB7
:1030B000441E00260D4DF64302E004460D460E4622
:1030C000102108460020C046002F03D004210846E6
:1030D0000020C0462005E90A084300990843690515
:1030E000F20A114358E60000FF070000FFFFFF7FD0
:1030F00010B50446C046C0462046FDF7A3F810BDF3
:10310000C80212D54803400F002804D0C803C043AA
:10311000012188407047EFF300800001000903217E
:103120000907084380F300887047002070470000BB
:1031300010B5024800F02CF810BD00000000C07F60
:1031400010B5202A04DB0146203A9140002010BD32
:10315000914020239C1A0346E3401943904010BD40
:103160004343514330B55C18010C130C0D4692B229
:103170005D4380B251432C19054655430A0C09049E
:103180004D1962415843010C00044019514130BDB2
:1031900010B50C461107090F092904D00A290AD0D5
:1031A00008290CD104E011460820FFF7A9FF06E02A
:1031B000510606D501E0510601D50120C007214680
:1031C00010BDD10607D501010909CC084907000E39
:1031D0000006044309E0410F20024907000A0143A9
:1031E000200E00061D22D14101430846E7E70000FA
:1031F00001491820ABBEFEE726000200FFB51F46BE
:1032000089B0139812994005C00FC007059000209F
:10321000079005460446461E049002903C20491C37
:1032200012910690B9690A98884703901498401E35
:1032300014901498002841DD03982E2816D01021F0
:10324000FFF78AF9002834DB012104910799014333
:103250001AD0069900290CDB069AC117FFF770FFF8
:10326000054306980C43001F069006E001200290DB
:103270000EE0002801D001200543012007900298AC
:10328000002805D1361D03E00298002800D0361F23
:103290001298401C1290B9690A98884703901498B4
:1032A000401E149004980028C3D00B99129808600F
:1032B000BFE70398702808D0502806D0F9690A980B
:1032C00088470498002815D051E000200390012081
:1032D0000290049800280AD01298401C1290B969F4
:1032E0000A9888471499491E0029149106DCF96947
:1032F0000A9888470120C0430DB0F0BD2B2804D0A8
:103300002D280DD10020C04302901298401C12902D
:10331000B9690A9888471499491E00291491E6DD75
:10332000411CE4D00A21FFF717F90028DFDB0399DD
:103330000A225143081803901298401C1290B96950
:103340000A9888470A21FFF707F914990B9A491E32
:103350001491129911601499002901DD0028E6DA10
:10336000F9690A988847029903984843861913987F
:103370002421084004902846204304D0A10F890747
:10338000090002D006E005989BE0A90FA4000C43B9
:10339000AD00B61EE10FC907080002D16D196441E6
:1033A000761E0498002803D00B2002905D4803E0AD
:1033B000282002907D20C0438642039007DA811BBB
:1033C000029808184128029001DD41200290029ADB
:1033D00001200021521EFFF7B3FE024628400B4693
:1033E0002140084301D0012000E000200790002088
:1033F000521EC04343412A4023401A4301D00120BA
:1034000000E0002007990690014352D000210846B1
:103410000020C0460321059A89050840002A05D0EE
:1034200082008018C20F1018401008408015012833
:1034300002DD0020C04301E0012815D0401C38D037
:103440000798002835D0069800280DD1029A01204F
:103450000021FFF775FE28402140084301D00120DC
:1034600000E00020002824D0029A01200021FFF76C
:1034700067FE034640198C4661412A1A8C410FD3DE
:103480000298402807DD0498039E002801D0343EAE
:1034900002E0173E00E0761C01240025E40708E066
:1034A0005B1E62460024E4436241DD43D443054091
:1034B0000C4003980121081AB04206DA1A4905980F
:1034C00008430190002000900EE060006205010BAF
:1034D000E80A1043059A009068460A4313490A43D4
:1034E0003146019203F088FD049800280AD0139811
:1034F000C00714D13868019A0099031D3B60006829
:1035000006C00CE002A8694603F00AFD1398C00744
:1035100005D13868029A011D39600068026012986E
:10352000EAE6000002FCFFFF0000F07F0000F03F31
:10353000FFB51D4687B01198484A109C129E400561
:103540001399C00F761EC007024301920022009219
:10355000FF22D2051043202291434929059003D030
:1035600017464E2928D04FE03DA002AA0BC80127DC
:103570000BC2A9690898641C8847761E014607D4C7
:1035800002A8C05D002803D02022914381420AD0C6
:10359000E96908988847032F36D0082F34D00120D6
:1035A000C0430BB0F0BD7F1C032F01D0082FE0D12A
:1035B0000999601C0860DCE7A9690898641C8847C1
:1035C000761E2DD4B84341282AD1A9690898641CD5
:1035D0008847761E24D4B8434E2821D1A96908987B
:1035E000641C884701990122D20411430191059975
:1035F000D200114305910999761E0C6001D4282848
:1036000006D0E969089888471198C00712D023E0CE
:10361000A9690898641C8847761E01D4002803DA3B
:10362000E96908988847BAE72928F1D10998641C04
:103630000460E9E711982421084207D02868019A1C
:103640000099031D2B60006806C005E028680599F5
:10365000021D2A60006801602046A2E70000F07F9A
:10366000494E46494E495459000000007047000039
:10367000F8B5264C4E00069DA6420AD8A64201D1B6
:10368000002806D15E00A64203D8A6420AD1002A2D
:1036900008D00D242404254233D029460020FFF70A
:1036A0002FFDF8BD0C461C4311D4994207D0C81A0F
:1036B00002D3EFF30080F8BDEFF30080F8BD801A6D
:1036C00002D3EFF30080F8BDEFF30080F8BD0924CA
:1036D0002407E5008B4207D0581A02D3EFF300808D
:1036E00006E0EFF3008007E0101A03D3EFF3008049
:1036F000A04303E0EFF30080A043284380F3008859
:10370000F8BD009500F034F8F8BD00000000E0FFBF
:1037100070B505464800440D124B0020002C0AD01D
:10372000634008D09A4206DA6642B24203DD1205CF
:103730004019514170BD002C08D0002B09D0C90F91
:10374000C907002AF6DB084A114370BDC90FC90733
:1037500070BD28460A03104302D00020034970BD03
:10376000284670BDFF0700000000F07F0000F87FD2
:1037700010B500200249029AFFF70AFD10BD0000B3
:103780000000F87F02480168491C01607047C0468C
:10379000380100207047000002480168012291436F
:1037A0000160704710200040B0B5144A93680124AE
:1037B000234393608B0807D0012B00D8234604468F
:1037C00020CC15605B1EFBD103240B462340A14394
:1037D000032B06D0022B0CD0012B0DD1405C000630
:1037E00009E0435A1B0402240C43005D0002C01888
:1037F00001E0405A000410601068B0BD0030024083
:10380000F0B581B000241C4D1C4E274603E0AD1CD2
:10381000641C182C0DD0E0B2C008305C01F044FDEF
:1038200007202040298801F047FD0028EFD101271B
:10383000EDE7F9B24842484101B0F0BDF0B581B0C2
:1038400000250D4C0D4E2F4603E0A41C6D1C182DB9
:103850000DD0E8B2C008305C01F026FD07202840FA
:10386000214601F0D2FD0028EFD10127EDE7F9B2A2
:103870004842484101B0F0BD900000200400002003
:1038800070B506460024214603F0C0FB05463046CD
:10389000FDF78EFC0D4A0E4BFDF70CF9002D01D102
:1038A0000D4B00E00B4B2246FDF7D4F8FDF726FB4D
:1038B0000A49884200DC08460949884200DB08467C
:1038C0000121C902401880B270BDC046FCA9F1D2E6
:1038D0004D62603F0000E0BF0000E03F00F8FFFFE6
:1038E000FF07000010B509490B68094A06E0C01A35
:1038F0007D239B010C681C1B844206D21468002C9B
:10390000F8D0002414609842F1D210BD18E000E015
:1039100048010020002800D0FEE77047F0B587B0CE
:103920000C46064602A9122224A300F029FE002814
:1039300042D00427009702A82E21214D0A232A46AF
:1039400001F040FE002837D002A912221DA3304604
:1039500000F016FE00282FD0062000902E1D02A891
:103960002E211023324601F02DFE002824D0287885
:10397000697809020818A978EA781202511809042E
:10398000081811490A88498809048918884203D00F
:10399000607A0221014361720C4906223046FCF72D
:1039A000BDFC002802D0607A38436072607A40071C
:1039B000800F01D002F092F807B0F0BD69700000EE
:1039C0003C0100206D616300E4070020DC0700205B
:1039D000F0B583B000900578E42000F069FD012483
:1039E000E106724E30680291084330606E4F3868CD
:1039F0008007FCD54420387138680006FCD438684C
:103A00008007FCD53D7138680006FCD44020FFF7E4
:103A100069FFE1023068019108433060009C6578DD
:103A2000E52000F045FD30680299084330603868B1
:103A30008007FCD54520387138680006FCD438680A
:103A40008007FCD53D7138680006FCD44020FFF7A4
:103A500049FF3068019908433060A578E22000F002
:103A600027FD306802990843306038688007FCD52C
:103A70004220387138680006FCD438688007FCD5CD
:103A80003D7138680006FCD44020FFF72BFF3068FA
:103A9000019908433060E578E32000F009FD3068C3
:103AA00002990843306038688007FCD5432038719C
:103AB00038680006FCD438688007FCD53D7138684A
:103AC0000006FCD440252846FFF70CFF306801991A
:103AD000084330602479E02000F0EAFC3068029965
:103AE0000843306038688007FCD53D7138680006AF
:103AF000FCD438688007FCD53C7138680006FCD4DB
:103B00004020FFF7EFFE30680199084330600098CD
:103B10004579E12000F0CCFC306802990843306020
:103B200038688007FCD54120387138680006FCD41D
:103B300038688007FCD53D7138680006FCD4402009
:103B4000FFF7D0FE306801990843306003B0F0BD44
:103B5000F0B58DB00124200312490A6802430A60BF
:103B6000114E3046083800220260311F0B920A6065
:103B7000C1229200036813430360026808231343C1
:103B80000360172212020B6813430B600168402286
:103B90000A4302600A94E406044F38682043386000
:103BA00006E0C046181002400830014018000048E6
:103BB00030688007FCD5FF25357130680006FCD4DD
:103BC00030688007FCD5357130680006FCD40A984F
:103BD000C10238680C91084338600548FFF782FE3F
:103BE000082000F065FC38682043386002E0C046D9
:103BF0000071020030688007FCD5482030713068C1
:103C00000006FCD430688007FCD50B983071306812
:103C10000006FCD44020FFF765FE38680C99084385
:103C20003860092000F044FC386820433860306870
:103C30008007FCD54920307130680006FCD430681C
:103C40008007FCD50B98307130680006FCD440200A
:103C5000FFF748FE38680C99084338600C2008903C
:103C600000F026FC38682043386030688007FCD5B7
:103C70004C20307130680006FCD430688007FCD5D9
:103C80000B98307130680006FCD44020FFF72AFE04
:103C900038680C99084338600D20029000F008FC49
:103CA00038682043386030688007FCD54D2030717B
:103CB00030680006FCD430688007FCD50B98307162
:103CC00030680006FCD44020FFF70CFE38680C99E1
:103CD000084338600A2000F0EBFB38682043386066
:103CE00030688007FCD54A200790307130680006A4
:103CF000FCD430688007FCD5357130680006FCD4F0
:103D00004020FFF7EFFD38680C99084338600B201E
:103D100000F0CEFB38682043386030688007FCD55F
:103D20004B200690307130680006FCD43068800764
:103D3000FCD51920307130680006FCD44020FFF714
:103D4000D1FD38680C99084338600420099000F0D0
:103D5000AFFB38682043386030688007FCD54420CA
:103D60000490307130680006FCD430688007FCD5C0
:103D70000B98307130680006FCD44020FFF7B2FD8C
:103D800038680C99084338600520059000F090FBD6
:103D900038682043386030688007FCD54520307192
:103DA00030680006FCD430688007FCD51A203071DA
:103DB00030680006FCD44020FFF794FD38680C9969
:103DC00008433860062000F073FB386820433860F1
:103DD00030688007FCD546200190307130680006BD
:103DE000FCD430688007FCD5357130680006FCD4FF
:103DF0004020FFF777FD38680C99084338600720AA
:103E000000F056FB38682043386030688007FCD5E6
:103E100047200090307130680006FCD4306880077D
:103E2000FCD51F20307130680006FCD44020FFF71D
:103E300059FD38680C9908433860382000F038FB89
:103E400038682043386030688007FCD558203071CE
:103E500030680006FCD430688007FCD5A1203071A2
:103E600030680006FCD440252846FFF73BFD386843
:103E70000C9908433860C020039000F019FB3868A3
:103E80002043386030688007FCD535713068000603
:103E9000FCD430688007FCD5029830713068000689
:103EA000FCD44020FFF71EFD38680C9908433860A9
:103EB000C12000F0FDFA3868204338603068800780
:103EC000FCD54120307130680006FCD43068800792
:103ED000FCD50B98307130680006FCD44020FFF709
:103EE00001FD38680C990843386038682043386011
:103EF00030688007FCD58220307130680006FCD421
:103F000030688007FCD53220307130680006FCD460
:103F10004020FFF7E7FC38680C9908433860C6205A
:103F200000F0C6FA38682043386030688007FCD556
:103F30000198307130680006FCD430688007FCD5E9
:103F40001225357130680006FCD44020FFF7CAFC0A
:103F500038680C9908433860C72000F0A9FA38681F
:103F60002043386030688007FCD500983071306895
:103F70000006FCD430688007FCD5089830713068A2
:103F80000006FCD44020FFF7ADFC38680C990843CC
:103F90003860C42000F08CFA3868204338603068FC
:103FA0008007FCD50498307130680006FCD4306876
:103FB0008007FCD5357130680006FCD44020FFF73F
:103FC00091FC38680C9908433860CA2000F070FAF8
:103FD00038682043386030688007FCD50798307116
:103FE00030680006FCD430688007FCD5DC203071D6
:103FF00030680006FCD44020FFF774FC38680C9948
:1040000008433860CB2000F053FA3868204338600A
:1040100030688007FCD50698307130680006FCD403
:1040200030688007FCD50598307130680006FCD4F4
:104030004020FFF757FC38680C9908433860214846
:104040000068FFF7C5FC0A980102102000F0A4F9EF
:104050001F2000F02DFA3868204338603068800750
:10406000FCD59B20307130680006FCD43068800796
:10407000FCD50398307130680006FCD44020FFF76F
:1040800031FC38680C990843386038682043386040
:1040900030688007FCD59F20307130680006FCD462
:1040A00030688007FCD50998307130680006FCD470
:1040B0004020FFF717FC38680C99084338600DB0B2
:1040C000F0BDC04628010020F0B581B01C24204678
:1040D00000F0EEF90120C206F34D29680092114369
:1040E0002960F24E31688907FCD5347131680906C0
:1040F000FCD431680906FCD43168C907FCD100271B
:1041000037713168C907FCD0C40228682043286091
:10411000392000F0CDF928680099084328603068FC
:104120008007FCD51920307130680006FCD4306857
:104130000006FCD43068C007FCD137713068C00776
:10414000FCD0286820432860002001B0F0BDC046A4
:10415000F0B587B00C4605460126F10203913039CF
:1041600004A801F03DFEF206F549086802921043EA
:104170000860F44F38688007FCD51F203871386814
:104180000006FCD438680006FCD43868C007FCD1AF
:104190000020019038713868C007FCD0E84A1068E8
:1041A0000399084310601C26304600F081F9E44A68
:1041B000106802990843106038688007FCD53E718A
:1041C00038680006FCD438680006FCD43868C0079C
:1041D000FCD1019838713868C007FCD0D84E3068DF
:1041E000039908433060022000F062F930680299B8
:1041F0000843306038688007FCD542203871386841
:104200000006FCD438688007FCD5019838713868FE
:104210000006FCD44020FFF765FBC94E30680399C7
:1042200008433060032000F043F9306802990843E6
:10423000306038688007FCD5432038713868000644
:10424000FCD438688007FCD51A203871386800061D
:10425000FCD44020FFF746FBB94E30680399084371
:104260003060062000F024F930680299084330607D
:104270000D2040022818009038688007FCD54620A1
:10428000387138680006FCD438688007FCD53D7169
:1042900038680006FCD44020FFF724FBA84E3068A5
:1042A000039908433060072000F002F93068029952
:1042B000084330600098000A39688907FCD5472117
:1042C000397139680906FCD439688907FCD5387119
:1042D00038680006FCD44020FFF704FB984A1068B9
:1042E0000399084310601068029908431060386809
:1042F0008007FCD57A263E7138680006FCD4386801
:104300008007FCD50198387138680006FCD440203D
:10431000FFF7E8FA8A4A10680399084310601068AA
:1043200002990843106038688007FCD53E713868F0
:104330000006FCD4002D0BD0207839688907FCD505
:10434000387138680006FCD4641C6D1E2804F3D153
:104350007B4A10680399084310601068029908436B
:10436000106038688007FCD59F20387138680006D7
:10437000FCD438688007FCD50820387138680006FE
:10438000FCD44020FFF7AEFA6D4A10680399084349
:10439000106007B0F0BDC046F0B583B0029105468D
:1043A000D42000F085F80124E106654E30680191C3
:1043B00008433060634F38688007FCD5542038715B
:1043C00038680006FCD438688007FCD53D71386831
:1043D0000006FCD44020FFF785FAE5023068284348
:1043E0003060D62000F064F83068019C20433060D3
:1043F00038688007FCD55620387138680006FCD430
:1044000038688007FCD50298387138680006FCD4FB
:104410004020FFF767FA306828433060D72000F06B
:1044200047F83068204330600298000A39688907ED
:10443000FCD55721397139680906FCD439688907D8
:10444000FCD5387138680006FCD44020FFF74AFAE2
:10445000306828433060EA2000F02AF830682043B2
:10446000306038688007FCD50A203871386800064B
:10447000FCD438680006FCD43868C007FCD10020A2
:1044800038713968C907FCD039680906FCD4396825
:10449000C907FCD138713868C007FCD030682843A0
:1044A000306003B0F0BDC04618000048083001403D
:1044B000F0B581B0602404402048007884423AD0AE
:1044C0000126F5061E490868284308601D4F386814
:1044D0008007FCD5BF20387138680006FCD43868E6
:1044E0008007FCD50320387138680006FCD44020D2
:1044F000FFF7F8F9F60212490868304308600868C7
:104500002843086038688007FCD59F2038713868D8
:104510000006FCD438688007FCD56009387138681B
:104520000006FCD44020FFF7DDF90448047004497C
:1045300008683043086001B0F0BDC046C0000020EC
:10454000180000480830014083B0B0B581B004467F
:1045500005A80EC0084D288808490968081805AA4A
:1045600000922146FBF7B2FE29880818288001B086
:10457000B0BC01BC03B00047F80700205001002088
:10458000F0B500241D4601E06D1C401C0678202774
:104590003743202F1AD00D2E18D0002C16D12F788B
:1045A000BE4209D19D420AD06E78002EECD14578EA
:1045B0003D2D00D10124401C1D46401CE6E7461E4F
:1045C00036783F2EF0D0262EEED0F6E7012C61D1C2
:1045D000521E00230478262C52D8A50001A6755936
:1045E000AF46C04691460008814600088146000853
:1045F000814600088146000881460008814600087F
:10460000814600088146000881460008814600086E
:10461000814600088146000891460008814600084E
:10462000814600088146000881460008814600084E
:10463000814600088146000881460008814600083E
:10464000814600088146000881460008814600082E
:10465000814600088146000881460008814600081E
:1046600081460008914600088146000881460008FE
:1046700081460008814600088146000891460008EE
:10468000DDB2AA4204DD0C70491C401C5B1CA1E792
:10469000002008700120F0BDF0B5234B1C46083CFB
:1046A000224D2560224D25601C68E407FCD11C6862
:1046B000A40603D51C68202525431D605C680225DF
:1046C0002C435C6098605C68402626435E601C68F2
:1046D000A406FCD520241C605E68AE435E601D68A5
:1046E000ED07FCD11D68AD0602D51D6825431D6090
:1046F0005E6801252E435E6052080DD000273E46BD
:104700007F00CF5B07801F68BF06FCD51C60801C44
:10471000761CF7B2BA42F3D85868A8435860586874
:10472000802101435960F0BD0C2002402301674500
:10473000AB89EFCD10B500211922064B02E02832DB
:10474000B92A04D09C5C8442F9D1491CF7E7C8B26D
:1047500010BDC0463807002070B50C46054601F074
:10476000ADF901783F2908D1401C01F0A7F90121DA
:104770000078002802D0C94300E000210326314020
:1047800004D0012910D002290BD070BD0848007850
:10479000002806D1284600F087FE002801D02660B8
:1047A00070BD0426266070BD0626266070BDC0461A
:1047B0002C01002070B50C4601F080F9054601F08F
:1047C0007DF901783F2908D1401C01F077F90121DA
:1047D0000078002802D0C94300E0002103263140C0
:1047E00004D001290AD0022905D070BD284600F066
:1047F00093FE002800D10426266070BD05262660A1
:1048000070BD10B50C4601F059F901783F2908D167
:10481000401C01F053F901210078002802D0C9435F
:1048200000E0002103200840012802D0022801D125
:104830000420206010BD0000F0B583B0064633A10F
:104840000522FBF7BBFD002842D069460A2231A3AE
:104850003046FFF795FE002400284FD0684600F050
:104860007DFB00284AD06846FBF742FDC7B2172FF0
:1048700044D805462848057069460A2227A33046D1
:10488000FFF77EFE002839D0684600F0F5FA0028D0
:1048900034D068460024214602F044FCFEF7F0FFC5
:1048A0000646F8081F49085C00F0FEFC072005409A
:1048B0002846314600F000FDBB490A78002820D088
:1048C0007800194B1E52FE2002400A70012415E0A8
:1048D000002015490124E2020A52801C3028F9D137
:1048E000FEF78EFFB0490A78002803D0FE20024070
:1048F0000A7003E0012002430A700024204603B03E
:10490000F0BD012002430A70F8E7C04652657365A6
:10491000740000006368000024010020766F6C744E
:10492000000000000400002090000020F0B583B0DB
:10493000044641480078010750D440075BD4414801
:104940000088002855D03D4900250D703E490A6871
:10495000155408683D49FBF7D9FC656002900028B2
:1049600049D0251D21460831019139A7374E0AE06B
:1049700002982946FFF745FF00203146FBF7C6FCA9
:104980000290002837D001F099F8029002A9384629
:1049900001F0CCF90028EBD102A92FA001F0C6F953
:1049A000002805D0029801992A4601F03FF9E3E773
:1049B00002A92BA001F0BAF9002804D002982946D8
:1049C000FFF7F8FED8E702A927A001F0AFF9002809
:1049D000D2D002982946FFF7BFFECDE717480178ED
:1049E0000A290ED30021017015480068018A0029A8
:1049F0000BD003B0F0BD217A606801F08FF803B0EE
:104A0000F0BD491C017003B0F0BDC17B4A1EC273EA
:104A100000290CD1817B4A1E8273002907D1417B7A
:104A20004A1E4273002902D1017B491E01730720EF
:104A30006060217AE1E7C046E207002034010020EF
:104A400034070020E8070020500100207E74000891
:104A50002A69646E00000000766F6C74000000002C
:104A6000666F726D61740000646174610000000023
:104A700070B582B004464A48006801904948017800
:104A8000CA0622D4490738D4617801293AD00029CE
:104A90003AD10025657245480088002834D044A0EA
:104AA00001A902F071F900282ED0434E706801A9C7
:104AB00002F06AF9002829D0404801A902F064F9FF
:104AC00000282CD00120606062E0607A810707D561
:104AD000FD21084060723448017804220A430270C4
:104AE000607A410710D5FB21084060722E4801789A
:104AF00008220A43027002B070BD204602F05CF941
:104B000002B070BD1021017002B070BDF06801A943
:104B100002F03AF9002814D00320606038E02848F9
:104B200001A902F031F9002832D001206060617AD9
:104B3000014361720198411E01912146FEF7EEFE8C
:104B400026E0B06801A902F01FF9002802D0022077
:104B500060601DE0306801A902F016F9002812D04B
:104B6000164801A902F010F9002801D065600FE095
:104B7000134801A902F008F9002804D00198411E49
:104B80000191FFF759FE6560607A0121014361726E
:104B9000204602F011F90120607002B070BDC046DD
:104BA00050010020E20700202D010020E80700202E
:104BB00047455420000000001C0000207C740008C1
:104BC00080740008F0B50120420430490B6813439B
:104BD0000B6082040B6813430B600922D3061C6828
:104BE000402214431C601C688025AC431C60DC68B8
:104BF0000443DC60DC680225AC43DC605C680825AB
:104C0000AC435C609C6894439C6004028D682543BF
:104C10008D601525EE01394C276837432760AD01BB
:104C20002668AE43266085051E682E431E60C505B6
:104C30001E68AE431E6065682826B5436560C402E1
:104C40005D68A5435D600B6813430B60104A531CFD
:104C500010498B627D23DB00CB62CB680343CB60C2
:104C60000D4B5A60FF2212060C4C25689543032217
:104C70009207AA18226000229A6007221A60C204D2
:104C8000074B1A600A6802430A60F0BD1410024024
:104C90003F1F00000020004010E000E020ED00E099
:104CA00000E100E040BA704710B514484168C022E6
:104CB0000A43426005221103C3680B43C3605203D9
:104CC000C3689343C36011231B06046A1C43046238
:104CD00003681343036002688A43026001204105B0
:104CE000074A13680B43136006490A69064B1343CE
:104CF0000B610A6802430A6010BDC0460004004808
:104D00001C10024000540040130F421070B50346BF
:104D1000FF200004564C256885432560080425685B
:104D2000054325600120850226682E432660A5697B
:104D300010262E43A661450326682E43266065692A
:104D4000ED0616D4002909D0254D66697607FCD5F5
:104D50002E781E705B1C491E0E06F6D1616949064D
:104D6000FCD5002A04D00120810322680A43226076
:104D700070BD002070BDC046B0B50246FF200004E3
:104D80003B4B1C6884431C60012044041D68254380
:104D90001D6084021D6825431D609C691025254304
:104DA0009D6144031D6825431D605C69E40615D4BC
:104DB0005C696407FCD50A4C257855705D696D0700
:104DC000FCD5247814705A695206FCD5002904D009
:104DD000012081031A680A431A60B0BD0020B0BDEB
:104DE0002454004022490A68034B13400B600A68B0
:104DF00002430A607047C04600FCFFFF70B50346DF
:104E0000FF2000041A4C25688543256008042568A6
:104E100005432560012085022668AE432660A5690A
:104E200010262E43A661450326682E4326600029DE
:104E30000DD0104D6669B60703D46669F606F9D53C
:104E40000BE01E782E705B1C491E0E06F2D16169C4
:104E5000490604D46169C906F9D5002070BD002A4D
:104E600004D00120810322680A43226070BDC0463D
:104E70000454004028540040B0B5441EFBF71EFA0D
:104E80000168012202E0641C012D08D060784342D1
:104E900043410D5CED071546F5D01D46F3E703468B
:104EA000303B0A2B03D32D2801D02B2848D11346A1
:104EB000607800281DD0452814D0652812D00D5CDC
:104EC000ED070BD1641C2E2803D030380A28EFD30D
:104ED00036E00020DB070346EAD1B0BD20231843AB
:104EE000652806D1A0782D2801D02B280FD1E01CF1
:104EF0000EE0012302E05B1C012DEED0E55C684270
:104F000068414D5DED071546F5D00546F3E7A01C59
:104F1000431E02E05B1C012D0AD0587844424441F4
:104F20000D5CED071546F5D02546F3E758785B1C78
:104F300000280AD00C5CE40707D130380928F5D9DD
:104F40000020B0BD5B1C002CC7D11C7860426041C2
:104F50000C5DE4071446F5D00446F3E7B0B5441EF3
:104F6000FBF7ACF90068012102E0641C012B08D0BA
:104F700063785A425A41C35CDB070B46F5D01346AF
:104F8000F3E72278002A0DD0835CDB070AD1303AA0
:104F9000092A13D86278641C002AF5D102E0641C47
:104FA000012D08D0227853425341855CED070D4610
:104FB000F5D01D46F3E750425041B0BD0020B0BDD2
:104FC000B0B5224C2068C5680A21FEF7EDFB85428A
:104FD0001AD120680188B24A118041885180C17974
:104FE000B04AD170817991700179037A137111708F
:104FF0004179437A537151700168A84A1160416840
:1050000051600089108119E011480188A44A11807B
:10501000418851800F490A78A24B1A704A785A7019
:105020008A789A70CA78DA700A791A714A795A714C
:1050300002689A4804C00622FBF710FA9748001D40
:1050400005490860FEF784FDB0BDC046140000208D
:10505000080000200C0000202801002090B0FFF77D
:10506000B1FDFFF721FEC820FEF754FC804C2078EC
:1050700000F01AF900F089F9002804D17D48017880
:1050800002220A430270002502E06D1C022D0DD0A1
:105090006019407800F008F900F037F90028F4D1E1
:1050A000744A1078022101431170EEE7FEF7C6FB47
:1050B0000028704A03D1107801210143117001F0DA
:1050C000F5F800F099FFFFF77BFF14206A49FFF71E
:1050D00063F900F0DBF97D24E1000DA800F080FE0B
:1050E0000AA8664900F07CFEA10007A800F078FE3F
:1050F00001A8634900F074FE0120C0020090614ED7
:10510000634F644C3068C00708D104A8007A0028B7
:105110000BD104A85C4900F063FE06E004A8007A05
:10512000002802D004A80021017204A800F046FE65
:10513000002806D03068C00703D100F019FE00F047
:10514000CDFC00252846FFF7F5FA042806D101A872
:1051500000F034FE002804D0FEF7FAFC01A800F0AD
:105160003BFE4A483946FEF7AFFF2080002812D0A8
:10517000387B797B09020D18009EB01DFFF792FD68
:10518000854225D100F0B0FE208800283D4E42D057
:105190003C20208031E00DA800F010FE002830D027
:1051A0000DA800F019FE02E02835A02D33D03A48B2
:1051B0004019B3490860022001F096F820880028C1
:1051C000F2D000F045FF20883946FEF7C1FFEBE73B
:1051D000387B797B09020D183046FFF763FD854265
:1051E000284E18D100F012FF012001F07DF8208830
:1051F000002810D000F02CFF20883946FEF7A8FFC9
:1052000009E00AA800F0DAFD002804D00AA800F09E
:10521000E3FD00F0D1FF174D287841070ED5FB21A3
:10522000084028701D4A10785178090208181C4B54
:1052300018809078D17809020818588028780007DB
:1052400000D45FE715490879164A10704879507004
:1052500088799070C879D070087A1071487A507146
:10526000081DFEF7B5FB2878F7210140297049E7B2
:10527000040000202D01002076040000102700000B
:10528000E093040010000048B80B0000DC050000AB
:1052900054010020E8070020380700203C010020CE
:1052A000E4070020DC07002080B5400020210143F6
:1052B000C8B2FFF797FD80BDF0B581B00D016A4619
:1052C00095700F095770B02606431670032100240D
:1052D00010462246FFF792FD002813D068460321AE
:1052E0000122FFF713FD00280CD0F8B269464A7876
:1052F0004240087870401043EAB289785140014337
:105300004C424C41204601B0F0BDF0B583B001A83D
:105310000024847044702025057003212246FFF785
:105320006DFD00282ED001A803210122FFF7EEFC1D
:10533000002827D001A80178694042780A43807884
:1053400010431FD102A83025857096274770342658
:105350000670032100242246FFF750FD002811D0DB
:1053600002A803210122FFF7D1FC00280AD002A8DD
:1053700041787940027872400A438078684010434F
:1053800044424441204603B0F0BDF0B583B001A8CB
:105390000024847044702725057003212246FFF7FE
:1053A0002DFD00282ED001A803210122FFF7AEFC1D
:1053B000002827D001A80178694042780A43807804
:1053C00010431FD102A830258570962747703426D8
:1053D0000670032100242246FFF710FD002811D09B
:1053E00002A803210122FFF791FC00280AD002A89D
:1053F00041787940027872400A43807868401043CF
:1054000044424441204603B0F0BD70B582B00C4622
:105410008021014301A80170012100252A46FFF7E0
:10542000EDFC00280AD0012620463146FFF7A4FCF7
:10543000002803D02088000920803546284602B085
:1054400070BD000080B50E48016808461C300D4A4A
:105450001278520605D500228A830B4B1A700A6215
:10546000427289880F4A1288914202D1FFF75EFA90
:1054700080BD0B4A1288914201D1FFF7F9FA80BD35
:1054800034070020E20700203401002080B50448E2
:10549000008800F017FF0348008800F013FF80BD6C
:1054A0002C00002018000020F0B581B01849FAF750
:1054B0002DFF0024002827461ED006460027144D45
:1054C000009706E000202946FAF720FF064600284C
:1054D00012D0172F18D83046FFF7CEFC0028F1D095
:1054E000304601F0A5FDFBF7FBF8FEF7C9F979009E
:1054F000084A50527F1CE5E7182F06D1FEF780F9C5
:105500000446401E844100E0009C204601B0F0BDEE
:105510003F7900089000002070B582B000F0CEFA0C
:10552000044600796D4628712078617809020818D0
:10553000A178E278120251180904081800900A2193
:1055400005262846324600F055FC1AA02946324668
:10555000FAF7E4FE002800D1641D00281DD0A078D1
:105560006D46A870207861780902081828800A2101
:1055700003262846324600F03DFC10A0294632465C
:10558000FAF7CCFE0025002811D1E01C00F096FAB5
:10559000007800280BD1012506E0204600F08EFAA5
:1055A00000780025002802D105480570012528460D
:1055B00002B070BD617363696900000062696E00CA
:1055C0002C010020F0B589B01C4602920591002202
:1055D0000E990391019006920492069B0278302A5C
:1055E00002D1022C04D119E0022C01D1312A15D0AC
:1055F000022C04D011463039C9B20A290ED3114603
:105600004139C9B2062902D2102C07D023E0102C50
:1056100021D111466139C9B206291CD20022012BC1
:10562000079200D901222646103E754275415E1E42
:105630001F46B7412146A41E66426641022B00D98F
:1056400098E03E4000D095E0154000D092E00C4636
:10565000401C5B1CC2E705998A420DD10499491C84
:105660000491CAB20021079103998A4200D381E0D4
:10567000401C002BB1D17DE000200A2A079001D008
:10568000002A77D1002B75D00498401CC0B2039932
:1056900088426FD108A8401E079000263546019B1E
:1056A000049606951978C8B2059A904202D11F4611
:1056B000304613E00020CAB20A2A0ED0002A0CD0CD
:1056C000C2B21D4608AB99546F1C401C6978CAB21F
:1056D000059B9A423B46EED100E01F46C0B208A9A6
:1056E0000E54102C29D108A8FAF746FEC1B20029A1
:1056F0002FD026460020012309E0573B1D46130109
:105700001E4C2340ECB254430019491E1ED01A46C9
:10571000079B5B5C1D46303DECB20A2CEFD31C4668
:10572000613CE4B2052CE8D91C46413CE4B2062CAD
:1057300001D30025E3E7373BE0E708A8FAF7D8FDF7
:10574000FF21090402048A4204DD11E03446049E6C
:1057500000E00020069DE9B2029A5054387805997D
:10576000884202D17B1C6D1C9BE70120079001E061
:1057700000200790079809B0F0BDC0461011010045
:10578000F0B58DB02648FEF7DFFE2648017826A04A
:10579000FEF7DAFE29A0FEF7D7FE00252C4E2DA439
:1057A000715D701983784278C778407E00970190C8
:1057B0002046FEF7C9FE2835A02DF1D12AA0FEF71C
:1057C000C3FE00252C48415D0C91401981780B9156
:1057D00041780A91C7780479467981790891C2792C
:1057E000037A417A0991807A009701940296089988
:1057F00003AC0EC409990691079020A00C990A9A4F
:105800000B9BFEF7A1FE0C35602DDBD12548FEF782
:105810009BFE2548018825A0FEF796FE0DB0F0BD41
:10582000827400082201002061727074696D653A0B
:105830002025753C62723E0A00000000436F6E6EC8
:10584000656374696F6E733A3C62723E0A000000D1
:105850003807002025752E25752E25752E257509EE
:1058600025753C62723E0A00415250207461626CA0
:10587000653A3C62723E0A00C200002025752E2562
:10588000752E25752E25750925752E25752E2575E0
:105890002E25752E25752E25750925753C62723EBF
:1058A0000A000000BC770008F807002025750000FA
:1058B000F0B583B01EA0FEF747FE002524A42046C5
:1058C000FEF742FE681C022D0546F8D30720C443AC
:1058D0000020274D2B4E2CA7019026A0FEF734FE6A
:1058E000009502940020285E24494018FBF7AEFC86
:1058F000FBF75EFC224A3346FBF736FB02460B46BB
:10590000083438462146FEF71FFE1035102CE9D327
:1059100024A0FEF719FE009DAD1C029C641C01989A
:10592000401C0828D8D121A0FEF70EFE03B0F0BD20
:105930003C7461626C6520626F726465723D3120F7
:1059400063656C6C70616464696E673D313E000034
:105950003C636F6C2077696474683D34303E3C630F
:105960006F6C2077696474683D37303E000000003A
:10597000900000203C74723E0000000000F8FFFF21
:10598000FCA9F1D24D62603F3C74683E25753C2F06
:1059900074683E3C74643E252E33663C2F74643E2E
:1059A000000000003C2F74723E0A20003C2F7461FE
:1059B000626C653E0000000010B51A48FEF7C4FD99
:1059C0001948FEF7C1FD1948FEF7BEFD18A0FEF705
:1059D000BBFDFFF76DFF1848047860001749085EAB
:1059E00017494018FBF732FCFBF7E2FB154A164B50
:1059F000FBF7BAFA02460B4614482146FEF7A4FD0F
:105A000013480178C80703D015A0890704D502E020
:105A100010A0890700D51DA0FEF796FD2648FEF7C9
:105A200093FD10BD827400087A7500087A7600082C
:105A30000A3C7072653E00002401002090000020A6
:105A400000F8FFFFFCA9F1D24D62603F2578000805
:105A50002D0100203C703E203C2F703E00000000D5
:105A60003C703E3C666F6E7420636F6C6F723D22BB
:105A7000726564223E20444143206572726F723C1D
:105A80002F666F6E743E3C2F703E00003C703E3CB3
:105A9000666F6E7420636F6C6F723D227265642254
:105AA0003E20444143206661756C743C2F666F6EE6
:105AB000743E3C2F703E0000B675000810B5441EC1
:105AC000FAF7FCFB00686178425CD207641C002A8C
:105AD00001D00029F7D1204610BD000070B584B078
